:100000000C94A9060C94F0060C94F0060C94F006DF
:100010000C94F0060C94F0060C94F0060C94F00688
:100020000C94F0060C94F0060C943F220C94FB21E7
:100030000C948A280C94F0060C94F0060C94F006AC
:100040000C94F0060C94F0060C94F0060C94F00658
:100050000C94F0060C9466280C94F0060C94F006B0
:100060000C94F0060C94F0060C94F0060C94F00638
:100070000C94F0060C94F0060C94F0060C94F00628
:100080000C94F0060C94F0060C94F0060C94F00618
:100090000C94F0060C94F0060C94F0060C94F00608
:1000A0000C94F0060C94F0060C94F0060631FF094F
:1000B00074A1010975150026FF00952075088102BD
:1000C0000976150026FF00952075089102C00501EC
:1000D0000980A101850319012AB700150126B7007F
:1000E000950175108100C0050C0901A10185041955
:1000F000012AA002150126A002950175108100C0F9
:1001000005010906A1018505050719E029E7150084
:1001100025019508750181020507190029EF1500D1
:10012000250195F07501810205081901290595053C
:1001300075019102950175039101C00660FF096187
:10014000A1010962150026FF0095207508810209AA
:1001500063150026FF00952075089102C00501096E
:1001600006A101050719E029E71500250195087585
:100170000181029501750881010507190029FF1504
:100180000026FF009506750881000508190129055C
:10019000950575019102950175039101C00A00252D
:1001A00075002E6E6B726F3A20000A002575002EC6
:1001B000737761705F6261636B736C6173685F62B8
:1001C00061636B73706163653A20000A00257500F6
:1001D0002E737761705F67726176655F6573633AEE
:1001E00020000A002575002E6E6F5F6775693A2042
:1001F000000A002575002E737761705F72616C7460
:100200005F726775693A20000A002575002E7377C2
:1002100061705F6C616C745F6C6775693A20000A8D
:10022000002575002E737761705F7263746C5F7266
:100230006775693A20000A002575002E7377617092
:100240005F6C63746C5F6C6775693A20000A002507
:1002500075002E636170736C6F636B5F746F5F63A7
:100260006F6E74726F6C3A20000A002575002E7351
:100270007761705F636F6E74726F6C5F63617073D0
:100280006C6F636B3A20000A0025303258006B65B2
:10029000796D61705F636F6E6669672E7261773A20
:1002A00020000A002575002E6D6F7573653A2000D9
:1002B0000A002575002E6B6579626F6172643A20C1
:1002C000000A002575002E6D61747269783A20006D
:1002D0000A002575002E656E61626C653A20000A81
:1002E00000253032580064656275675F636F6E6623
:1002F00069672E7261773A20000A002575006465EF
:100300006661756C745F6C617965723A20000A09E8
:100310002D204D61676963202D0A443A09446562C6
:100320007567204D65737361676520546F67676CEF
:10033000650A583A094D617472697820446562759E
:1003400067204D6F646520546F67676C65202D20B2
:1003500053686F77206B657970726573736573206E
:10036000696E206D617472697820677269640A4BE6
:100370003A094B6579626F61726420446562756702
:1003800020546F67676C65202D2053686F77206B52
:1003900065797072657373207265706F72740A4D3F
:1003A0003A094465627567204D6F75736520546F17
:1003B00067676C650A563A0956657273696F6E0A0B
:1003C000533A095374617475730A433A094163746B
:1003D000697661746520436F6E736F6C65204D6F35
:1003E00064650A46312D4631303A095377697463A2
:1003F0006820746F204C6179657220302D39202877
:10040000463130203D204C30290A302D393A0953ED
:10041000776974636820746F204C6179657220304D
:100420002D390A47524156453A0953776974636832
:1004300020746F204C6179657220302028616C74C3
:1004400065726E617465290A423A094A756D7020B9
:10045000746F20426F6F746C6F616465720A4553EC
:10046000433A094A756D7020746F20426F6F746C47
:100470006F616465722028616C7465726E61746569
:10048000290A453A095072696E7420454550524F09
:100490004D2053657474696E67730A42535041432B
:1004A000453A09436C65617220454550524F4D0AEB
:1004B0004E3A094E4B524F20546F67676C650A00E5
:1004C0004743433A20382E342E30204156522D4C8B
:1004D0004942433A20322E302E30204156525F415D
:1004E0005243483A20617672350A004F5054494FC2
:1004F0004E533A204C5546412045585452414B45A5
:100500005920434F4E534F4C4520434F4D4D414E84
:1005100044204E4B524F204C544F20343039360A31
:10052000004255494C443A2020284170722032380C
:100530002032303231290A005649443A2030783589
:100540003334322853706163656D616E29205049E0
:10055000443A20307833323235283225204D696CC8
:100560006B29205645523A203078303030310A001D
:100570000A092D2056657273696F6E202D0A00746A
:10058000696D65725F72656164333228293A20258E
:1005900030346C580A006B65796D61705F636F6E03
:1005A0006669672E6E6B726F3A2025580A006B657C
:1005B00079626F6172645F69646C653A2025580ADC
:1005C000006B6579626F6172645F70726F746F63E4
:1005D0006F6C3A2025580A00686F73745F6B6579F9
:1005E000626F6172645F6C65647328293A202558D4
:1005F0000A000A092D20537461747573202D0A00B6
:100600003F004E4B524F3A206F66660A004E4B52E7
:100610004F3A206F6E0A000A6D6F7573653A206F4E
:1006200066660A000A6D6F7573653A206F6E0A0080
:100630000A6B6579626F6172643A206F66660A00C0
:100640000A6B6579626F6172643A206F6E0A000A04
:100650006D61747269783A206F66660A000A6D618E
:10066000747269783A206F6E0A000A646562756771
:100670003A206F66660A000A64656275673A206F01
:100680006E0A000A0A4A756D70696E6720746F20E1
:10069000626F6F746C6F616465722E2E2E20004342
:1006A0003E2000436C656172696E6720454550527B
:1006B0004F4D0A006565636F6E6669673A0A004CC4
:1006C00025640A007267626C69676874206D6F64E4
:1006D00065205B4E4F454550524F4D5D3A20257584
:1006E0000A007267626C69676874206D6F646520C8
:1006F0005B454550524F4D5D3A2025750A0000017B
:1007000001010101010101010202020202020202D1
:1007100002030303030303030304040404040404A3
:100720000505050505060606060607070707070867
:10073000080808090909090A0A0A0B0B0B0C0C0C1A
:100740000D0D0D0E0E0E0F0F0F10101111111212B4
:1007500013131414151516161717181819191A1A31
:100760001B1B1C1D1D1E1E1F202021222223242492
:10077000252626272829292A2B2C2D2D2E2F3031CE
:100780003232333435363738393A3B3C3D3E3F40E0
:100790004142434445464748494A4C4D4E4F5051CB
:1007A0005354555658595A5B5D5E5F616264656685
:1007B00068696B6C6D6F7072737577787A7B7D7E0C
:1007C0008082838587888A8C8E8F91939596989A5C
:1007D0009C9EA0A2A3A5A7A9ABADAFB1B3B5B7BA74
:1007E000BCBEC0C2C4C6C9CBCDCFD1D4D6D8DBDD48
:1007F000DFE2E4E7E9EBEEF0F3F5F8FAFDFF72670C
:10080000626C696768742073657420687376205B16
:100810004E4F454550524F4D5D3A2025752C25755C
:100820002C25750A007267626C69676874207365AD
:100830007420687376205B454550524F4D5D3A20D9
:1008400025752C25752C25750A00E2003D00010058
:100850000100010001000100010000000000000093
:100860000000000000000000000000000000000088
:1008700000000000000000000000000000007E0FEB
:1008800000D4FFFFFFC70000007800000000000058
:1008900000002A2B280000000000000000000000DB
:1008A000000000000029000000002C1E342021223E
:1008B00024342627252E362D3738271E1F202122A7
:1008C000232425263333362E37381F040506070820
:1008D000090A0B0C0D0E0F10111213141516171810
:1008E000191A1B1C1D2F3130232D3504050607084E
:1008F000090A0B0C0D0E0F101112131415161718F0
:10090000191A1B1C1D2F3130354C7267626C6967D8
:1009100068742064697361626C65205B4545505260
:100920004F4D5D3A207267626C696768745F636FF0
:100930006E6669672E656E61626C65203D20257567
:100940000A007267626C6967687420656E61626C28
:1009500065205B454550524F4D5D3A207267626C91
:10096000696768745F636F6E6669672E656E616242
:100970006C65203D2025750A007267626C696768A6
:100980007420746F67676C65205B454550524F4D0E
:100990005D3A207267626C696768745F636F6E6648
:1009A00069672E656E61626C65203D2025750A00C1
:1009B00044454255473A2064697361626C65642E10
:1009C0000A0044454255473A20656E61626C656491
:1009D0002E0A000A092D20436F6E736F6C65202D5F
:1009E0000A4553432F713A09717569740A003F0033
:1009F000433E20000A002530325820006B657962A2
:100A00006F6172645F7265706F72743A2000616426
:100A1000645F6B65795F6269743A2063616E277405
:100A2000206164643A20253032580A0064656C5FA6
:100A30006B65795F6269743A2063616E2774206424
:100A4000656C3A20253032580A007267626C69671B
:100A500068745F636F6E6669672E73706565642086
:100A60003D2025640A007267626C696768745F6381
:100A70006F6E6669672E76616C203D2025640A00E2
:100A80007267626C696768745F636F6E6669672E10
:100A9000736174203D2025640A007267626C696787
:100AA00068745F636F6E6669672E687565203D20A8
:100AB00025640A007267686C696768745F636F6EAB
:100AC0006669672E6D6F6465203D2025640A00729B
:100AD00067626C696768745F636F6E6669672E65CD
:100AE0006E61626C65203D2025640A007267626C4D
:100AF000696768745F636F6E666967204545505229
:100B00004F4D3A0A007267626C696768745F696E7C
:100B10006974207267626C696768745F636F6E6680
:100B200069672E6D6F6465203D20302E20577269F5
:100B300074652064656661756C742076616C75659A
:100B40007320746F20454550524F4D2E0A00726736
:100B5000626C696768745F696E6974206565636F4C
:100B60006E666967206973206E6F7420656E6162BE
:100B70006C65642E0A007267626C696768745F69ED
:100B80006E6974207374617274210A007267626CFA
:100B9000696768745F696E69742063616C6C656411
:100BA0002E0A000A0025303862003A200025303233
:100BB00058000A722F632030313233343536370A09
:100BC000000A0025303258006B6579626F617264EB
:100BD0005F7365745F6C65643A20007267626C696C
:100BE0006768742064697361626C65205B4E4F4571
:100BF0004550524F4D5D3A207267626C6967687468
:100C00005F636F6E6669672E656E61626C65203D1D
:100C10002025750A007267626C6967687420656ECA
:100C200061626C65205B4E4F454550524F4D5D3AB9
:100C3000207267626C696768745F636F6E6669676C
:100C40002E656E61626C65203D2025750A00726715
:100C5000626C69676874207365742073706565647D
:100C6000205B4E4F454550524F4D5D3A2025750A49
:100C7000005B735D004B6579626F61726420737411
:100C80006172742E0A005B435D005B445D005B5340
:100C90005D005B575D005B525D0009027B00040153
:100CA00000A0FA090400000103010100092111015B
:100CB00000012240000705810308000A0904010021
:100CC0000203000000092111010001222200070592
:100CD000820320000107050303200001090402002C
:100CE0000103000000092111010001226D00070528
:100CF000840320000A090403000203000000092104
:100D000011010001222200070585032000010705CB
:100D100005032000011201100100000008425325C4
:100D20003201000102000110033200250020004DB5
:100D30000069006C006B000000120353007000613A
:100D400000630065006D0061006E0000000403098F
:100D5000040011241FBECFEFDAE0DEBFCDBF04B622
:100D600003FE27C08091170290911802A0911902EA
:100D7000B0911A028730904BA740B04BD1F410923B
:100D80001702109218021092190210921A0214BE41
:100D900084B7877F84BF0FB6F894A89580916000D0
:100DA000886180936000109260000FBEE0E0F8E37D
:100DB000099511E0A0E0B1E0E4E6F3E502C005909A
:100DC0000D92A035B107D9F722E0A0E5B1E001C04E
:100DD0001D92A731B207E1F70E946C230C942629DB
:100DE0000C940000FF93EF93E0915001F0915101BA
:100DF000309709F00995EF91FF910895FC018591D5
:100E0000803011F0EFDFFBCF0895FF27E0E230E202
:100E100047FF0CC0419597FF09C0EDE260957095C2
:100E200080959095611D711D811D911D27FF02C048
:100E3000219530E350E2AA27660F771F881F991F7C
:100E4000AA1FA41710F0A41B63955A95A9F7AA30FE
:100E500008F0A95FA05DAF93F39561157105810559
:100E6000910541F7ED3211F4EF93F395F21718F471
:100E70003F93F395FBCF8F91B5DFFA95E1F7089596
:100E8000E991F9918591803021F0853219F0AADF3E
:100E9000F9CF089520E0E89455915532C1F35033CD
:100EA00011F4689455915A3348F4505390F3220F3B
:100EB000022E220F220F200D250FF4CF0EF42195C4
:100EC00089919991533619F3533729F1533559F1D3
:100ED000BC0188279927E8945C3621F4899199917F
:100EE00068945591543639F446EF7EF077FF0DC083
:100EF0008FEF9FEF0AC055374AE039F0583540E18F
:100F000021F0523642E009F00895FF93EF937DDF20
:100F1000EF91FF91B7CFFF93EF93FC018191803068
:100F2000B9F360DFFBCFFF93EF9368DFF1CFDF937F
:100F3000CF93CDB7DEB72596A3DFCF91DF9108958C
:100F4000E8EDF0E080818E7F80831092E2001092C5
:100F5000DA001092E100A0EEB0E08C9181608C93F9
:100F600080818F77808319BCA7EDB0E08C918E7F54
:100F70008C9380818F7E80831092DD010895209173
:100F8000E4003091E50095E6A9012091EC00822F64
:100F9000817020FF06C08091E80080FF06C080E0DD
:100FA00008952091E80022FD1AC080910202882352
:100FB00089F0853089F08091EB0085FD0FC020918C
:100FC000E4003091E50042175307F9F29150E1F641
:100FD00084E0089582E0089583E0089581E0089513
:100FE000EF92FF920F931F93CF937C018B010E948E
:100FF000BF07C82F811117C08091E80085FD0BC085
:101000008091E8008E778093E8000E94BF078823D4
:1010100099F3C82F08C0F70181917F018093F100F7
:101020000150110949F78C2FCF911F910F91FF901B
:10103000EF9008958091040287FF13C08091E8002B
:1010400082FF06C08091E8008B778093E80004C09F
:10105000809102028111F2CF0895809102028823CB
:10106000D9F38091E80080FFF8CF8091E8008E7777
:10107000ECCF982F9093E900242F762F50E089171A
:1010800031F07091EC002091ED005091F00021FDC5
:1010900007C09F5F973071F78093E90081E0089562
:1010A0003091EB003E7F3093EB003091ED003D7FBF
:1010B0003093ED003091EB0031603093EB00709392
:1010C000EC002093ED005093F0002091EE0027FDFE
:1010D000E0CF80E00895CF92DF92EF92FF920F93DE
:1010E0001F93CF93DF93C8EDD0E088818F7E8883F4
:1010F000E7EDF0E080818160808384E082BF81E061
:101100008093DD0188818E7F888302EE10E0F801F4
:1011100010821092DA0081EEC82ED12CF6011082D6
:1011200088818F77888388818068888388818F7D94
:10113000888319BC109202021092030210920102DD
:101140001092000290EEE92EF12CF70180818B7F46
:10115000808388818160888342E060E080E00E9433
:101160003908F60180818E7F8083F801808181605B
:101170008083808188608083F70180818E7F808377
:10118000888180618883DF91CF911F910F91FF90BB
:10119000EF90DF90CF900895FC0180910A0290912A
:1011A0000B0286179707A0F06115710529F490913D
:1011B000E8009E779093E80090E06115710551F486
:1011C000911108C08091E80082FF34C080E008954A
:1011D000BC01F2CF809102028823C1F18530C1F1B8
:1011E0008091E80083FD30C08091E80082FDEACF65
:1011F0008091E80080FFE1CF8091F3002091F20020
:10120000382F6115710519F02830310558F091E03B
:101210002830310509F090E02091E8002E772093E6
:10122000E800CBCF81918093F100615071092F5F6D
:101230003F4FE7CF80910202882341F0853041F093
:101240008091E80083FFBECF81E0089582E0089599
:1012500083E0089508958091DF01089587E797E777
:10126000909301088093000888E19AE00FB6F89403
:10127000A895809360000FBE90936000FFCF2FB7BA
:10128000F89480910C0290910D02A0910E02B09101
:101290000F022FBF08958091C20181111092C201E7
:1012A0000895980F692F677096959695969585E0A5
:1012B000989FF0011124E754FE4F50E040E080E099
:1012C000219130E0062E02C0369527950A94E2F768
:1012D00021703327042E01C0220F0A94EAF7822BD3
:1012E0004F5F5F4F4530510559F70895980F892F8B
:1012F000877041E001C0440F8A95EAF7969596956C
:10130000969585E0989FF0011124E754FE4F30E058
:1013100020E070E05191DF011197CB01022E02C055
:10132000969587950A94E2F78170819585278423A5
:1013300085278C932F5F3F4F2530310559F708954E
:101340008091B80190918701981301C008958F5F33
:101350008770FACF20917D0130917E0128173907DF
:1013600071F090937E0180937D01E091CD01F09129
:10137000CE01309721F00084F185E02D0994089585
:1013800020917B0130917C012817390771F09093EF
:101390007C0180937B01E091CD01F091CE013097EB
:1013A00021F00680F781E02D09940895E091CD01A8
:1013B000F091CE01309721F00190F081E02D099459
:1013C00080E00895FA01811101C0FB010994809128
:1013D000D401982F9E7F39F48091D401817082606E
:1013E0008093D40108958430B8F70895CF9389B1DC
:1013F00090E024E0959587952A95E1F78095909562
:10140000817099272091C801281709F43FC0809363
:10141000C80181E026B130E096E0359527959A9590
:10142000E1F720953095217033279091C901C0E0F4
:10143000921719F02093C901C1E0C82B49F181E04E
:10144000809374010E943F0990937301809372010D
:1014500020917201309173014FB7F89480910C0282
:1014600090910D02A0910E02B0910F024FBF821B0E
:10147000930B069788F08091C8018093D9018091E1
:10148000C9018093DA011092740106C080E0C2CFD6
:10149000809174018111DCCF8C2FCF9108959091B0
:1014A000CA0192FF06C0282F28712830F9F4877FDF
:1014B000846093FF06C0282F28712831F1F4877EBD
:1014C00084612091CB0120FF06C0382F387138305D
:1014D000D9F4877F816021FF06C0282F2871283129
:1014E000D1F4877E816194FD877E0895282F247131
:1014F0002430F9F68B7F8860DCCF282F24712431CB
:1015000001F78B7E8861DDCF382F3171313019F7CB
:101510008E7F8860E0CF282F2171213121F78E7EC8
:101520008861E1CF829590E09C01220F331F220F4A
:10153000331F2C7C95958795959587958373282BDC
:1015400030E0C901880F991F8A7A3595279525754E
:10155000822B0895CF9384E090E00E94DE28C82F6C
:1015600081E290E00E94DE28982F8C2FCF91089581
:101570000F931F93CF93DF93262F240F3327331F0F
:10158000E901CC0FDD1F34E0839FC0011124C80F97
:10159000D91FCE0186960E94DE28082F10E0102F5A
:1015A0000027CE0187960E94DE289801282BC901CA
:1015B000DF91CF911F910F910895843040F47230E4
:1015C00030F4611104C040E0672F0C94B80A90E039
:1015D00080E00895CF93DF930E94DD0AEC0182380A
:1015E0009105A9F1D8F58133910509F496C048F524
:1015F0008932910509F48AC08A9709F495C0C1150A
:1016000022E5D20708F0B6C0C11531E5D30708F0CE
:1016100026C1C83ED10508F09CC0C03ED10560F58A
:10162000C83AD10508F087C0C53AD10508F0EFC027
:10163000C130D10509F12097F9F0C430D105E0F4AB
:1016400040C08533910509F45AC0C997C1F680910D
:10165000CA01837089F0C0EED0E00EC0833E9105D0
:1016600099F170F4803E910501F1823E910539F6C1
:101670008091CA0182FD21C0CE01DF91CF910895F2
:10168000863E910561F1873E910571F1843E910599
:1016900009F0B5CF8091CB0181FFEECF8091CA01D7
:1016A000C7EED0E084FD0DC0E7CF8091CA0180FD78
:1016B00007C19091CB0190FFDFCFC3EED0E084FF54
:1016C000DBCFD0E0C0E0D8CF8091CA0182FDFBC063
:1016D0009091CB0190FDBFCF84FFCECFF2CF809110
:1016E000CA0183FDDDCFC8CF8091CA0183FDEEC062
:1016F0009091CB0191FFF0CFC4EED0E0BDCF8091AF
:10170000CA0185FFB9CFC9E2D0E0B6CF8091CA0146
:1017100085FFB2CFC5E3D0E0AFCF8091CA0186FF8D
:10172000ABCFCAE2D0E0A8CF8091CA0186FFA4CF98
:10173000C1E3D0E0A1CFCF3BD10518F6C85AD0E025
:10174000CC0FDD1FC25FDE4F0990D881C02DD4645D
:1017500093CFC11540E5D40708F064C0C11580E4FB
:10176000D80708F05CC0CE019A9581159F4108F416
:1017700083CFA7CFC11536E5D30718F5C11545E5C9
:10178000D40708F084C0C11584E5D80708F07AC0F2
:101790009C2F969596959E0123703327C115D345AE
:1017A00008F462C0C1E0D0E002C0CC0FDD1F2A9572
:1017B000E2F730E2939FC0011124C82BD92BDA68DD
:1017C0005BCFC1158AE5D80778F4C11599E5D9072B
:1017D00008F068C0C11528E5D20708F472CFDC2FE5
:1017E000CC27C06FD06A48CFCE0190568115904269
:1017F00008F067CF8D2F8F710E944F0A90E0982FCD
:10180000882788279F719C012C2BE90149C0C55A64
:10181000D0E0C55FDE4FC881D0E0D0642DCFDF704F
:10182000D06A2ACFCE01E4E096958795EA95E1F754
:1018300083702C2F26952695237040E2249F9001DB
:101840001124382B8C2F8370C1E0D0E002C0CC0F64
:10185000DD1F8A95E2F7C22BD32BDC680DCFDC2F7E
:10186000CC27C16FD06A08CFC1E0D0E002C0CC0F56
:10187000DD1F2A95E2F720E2929FC0011124C82BB8
:10188000D92BEBCFDC2FCC27C46FD06AF5CE8C2FB1
:101890000E944F0AC82FD0E0DC2FCC27CC27DF7165
:1018A000D062EACE8C2F8F700E944F0A34E0D6951A
:1018B000C7953A95E1F7CF709C2FEC01D069DCCE4B
:1018C000C9E3D0E0D9CEC2EED0E0D6CEC6EED0E0AD
:1018D000D3CEBF92CF92DF92EF92FF920F931F93DE
:1018E000CF93DF938C01C0901302D0901402E0904C
:1018F0001502F09016028091C3019091C401A0914D
:10190000C501B091C601C82AD92AEA2AFB2ACFE12B
:10191000D0E0BC2ED701C6010C2E04C0B695A79509
:10192000979587950A94D2F780FD0EC0219788F786
:10193000B12C8B2DDF91CF911F910F91FF90EF90E4
:10194000DF90CF90BF900895B8018C2F0E94EA0AD3
:10195000019761F3EECFCF93DF93EC010E94690C06
:10196000BE01DF91CF910C94EA0A0E94AB0C292FA3
:101970002F7092959F7092509E3078F4E92FF0E08E
:10198000E85DF64D0C94D128803F19F020F4883E94
:1019900020F481E00895843FE1F380E00895883EDB
:1019A000C0F3813FD1F7F5CF822F86958695869536
:1019B0000895EF92FF920F931F93CF93DF930AE462
:1019C00018E0C6E2D0E0F801E590F4906F2DCE016A
:1019D0000E94F2286E2DCE0101960E94F228F80195
:1019E0003296E590F4906F2DCE0102960E94F22877
:1019F0006E2DCE0103960E94F2280C5F1F4F249695
:101A0000C633D10501F7DF91CF911F910F91FF9060
:101A1000EF900895CF93DF93C6E3D0E060E0CE016E
:101A20000E94F2282196C11584E0D807B9F7DF910A
:101A3000CF91089520910A01222351F12091CA01EA
:101A400027FF26C0E62FE695E695E695EE3178F479
:101A5000E80FF92FF11D677021E030E001C0220F7F
:101A60006A95EAF720958281282322830895809140
:101A7000D30180FF19C01F926F938CE29AE09F936D
:101A80008F930E9497070F900F900F900F900895DB
:101A9000FC01329608962191621303C0DF01119771
:101AA0001C92E817F907B9F7089520910A0122233B
:101AB00049F12091CA0127FF25C0E62FE695E6955A
:101AC000E695EE3170F4E80FF92FF11D677021E013
:101AD00030E001C0220F6A95EAF78281822B82836F
:101AE00008958091D30180FF1EC01F926F938EE0F6
:101AF0009AE09F938F930E9497070F900F900F90FB
:101B00000F900895FC0132962FEF30E04191641759
:101B100051F02F3F19F4411101C0232F3F5F3630A0
:101B2000A9F72F3F09F40895820F911D27FD9A957B
:101B3000FC0162830895EF92FF920F931F93CF935E
:101B4000DF938091C1019091C001892B9091BF01D9
:101B5000892B809352019091C2019923B1F0892B76
:101B60008093520180910A01882309F45DC080911D
:101B7000CA0187FF59C08EE1E4E5F1E090E08150B1
:101B800008F054C091110E944B09E091CD01F091F1
:101B9000CE01309709F450C080910A01882359F092
:101BA0008091CA0187FF07C0809152018093530141
:101BB00085E0809352010280F381E02D82E591E07F
:101BC00009958091D30182FF37C080FF04C08CEF5C
:101BD00099E00E94FE06C2E5D1E08AE5E82E81E0A8
:101BE000F82E06EF19E08091D30180FF0BC08881A9
:101BF0001F928F931F930F930E9497070F900F9040
:101C00000F900F902196EC16FD0669F78091D30195
:101C100080FF12C084EF99E0DF91CF911F910F9167
:101C2000FF90EF900C94FE0686E0A6CF2191222330
:101C300009F4A5CF9F5FA3CFDF91CF911F910F91A3
:101C4000FF90EF90089590E080E00E94C00990E03E
:101C500080E00E94AA091092C0011092BF010C946A
:101C60009B0D60931302709314028093150290935E
:101C700016020C94230E0F931F9360911302709120
:101C8000140280911502909116028B019C0106703E
:101C9000112722273327063011052105310529F4A4
:101CA00068601F910F910C94310E677FFACF0F93EC
:101CB0001F9341E050E060E070E004C0440F551F06
:101CC000661F771F8A95D2F7CB01BA016095709590
:101CD00080959095009113021091140220911502A5
:101CE0003091160260237123822393231F910F9159
:101CF0000C94310E9091BE01809589238093BE0192
:101D0000282F277071F4282F082E000C330B921700
:101D1000130639F08595859585950E94570E10928A
:101D2000BE0108950F931F9341E050E060E070E022
:101D300004C0440F551F661F771F8A95D2F7809104
:101D4000130290911402A0911502B09116028A011B
:101D50009B01082B192B2A2B3B2BC901B8011F9182
:101D60000F910C94310E6093C3017093C401809362
:101D7000C5019093C6010C94230E882341F08095F1
:101D80009091C10189238093C1010C949B0D08950A
:101D9000882339F09091C101982B9093C1010C9444
:101DA0009B0D0895882379F19CEF980F913A38F4B0
:101DB000682F82E591E00E941A0D0C949B0D90E231
:101DC000980F983088F4877021E030E0A90102C0B4
:101DD000440F551F8A95E2F7CA0180959091C10181
:101DE00089238093C101E9CF9BE5980F933020F4BC
:101DF00090E080E00C94C009885A873120F490E08C
:101E000080E00C94AA0908959FB7F8941092DB0122
:101E10009FBF90910202943009F048C02091E900E0
:101E20002F703091EC00932F917030FD90E8922B41
:101E300025E02093E9002091EB0020FF34C02091A1
:101E4000EE0027FF30C02091C701222321F020910E
:101E5000E80025FF28C01092C70126E03091E80075
:101E600035FF14C08093F1008091E80085FD27C004
:101E70008091E80080FFFCCF8091E8008E7780930E
:101E8000E8009F709093E90080E00895309102028D
:101E9000343049F43091EB0035FD05C0215041F458
:101EA00081E08093C7019F709093E9008FEF0895C0
:101EB000EFE9FFE03197F1F700C00000CFCF8FB717
:101EC000F89421E02093DB018FBFDBCFCF93DF932A
:101ED00000D00F92CDB7DEB790910202943011F589
:101EE00089837B836A839093E9008FEF9091E80068
:101EF000815095FD06C095ED9A95F1F7000081118E
:101F0000F5CF8091E80085FF0DC050E040E063E030
:101F100070E0CE0101960E94F0078091E8008E7774
:101F20008093E8000F900F900F90DF91CF9108956C
:101F3000BC0184E00C94660FBC0183E00C94660F36
:101F4000CF93DF93EC0180910A018823B1F1809156
:101F5000CA0187FF32C060E284E08093E9008FEF1E
:101F60009091E800815095FD06C095ED9A95F1F7A6
:101F700000008111F5CF8091E80085FF1BC08091A2
:101F80000A0170E050E040E0811104C050E040E000
:101F900068E070E0CE010E94F0078091E8008E7743
:101FA0008093E80080E2FE01A0EEB1E001900D9286
:101FB0008A95E1F7DF91CF91089568E081E0CDCF78
:101FC0008091D40180FD0CC01092760110927501B1
:101FD00010927701109279011092780110927A0193
:101FE000269A35B13F7B25B120644FB7F89485E739
:101FF00091E0FC015191CF0168E025B9000000C0DB
:1020000057FF35B9550F000000C000C000C035B9FA
:1020100000C06A9591F7F1E08B379F0751F74FBFEA
:102020008FE594E00197F1F700C0000008956BEE92
:102030007EEF90E080E00E94102960E082E090E076
:102040000E94F22860E083E090E00E94F228109263
:10205000C3011092C4011092C5011092C60160E044
:1020600084E090E00E94F22860E081E290E00E942B
:10207000F22860E085E090E00E94F22860E086E0CF
:1020800090E00E94F2286FEF87E090E00E94F22833
:1020900040E050E0BA0188E090E00E94042960E04E
:1020A0008DE090E00E94F22840E050E0BA0188E123
:1020B00090E00E94042960E087E190E00E94F2280D
:1020C00040E050E0BA018CE190E00E94042960E019
:1020D00080E290E00E94F22840E050E0BA0188E1FE
:1020E00090E00E94042940E050E0BA018FE090E0C7
:1020F0000E94042940E050E0BA0183E190E00C9492
:102100000429CF92DF92EF92FF926B017C010E9433
:10211000E709B701A60188E090E0FF90EF90DF901B
:10212000CF900C9404298F929F92AF92BF92CF923E
:10213000DF92EF92FF920F931F93CF93DF93D82FED
:10214000C62F142F822E0091D40100FF4EC0802F85
:102150008E7F8230C9F4E42FF0E0E250F94F611134
:1021600051C02491F22FE22F00FF0EC0E0937601C0
:1021700020937501F0937701E09379012093780122
:10218000F0937A010E94E00FD093D501C093D6015D
:102190001093D701882009F4AAC06091D4017091EE
:1021A000D5018091D6019091D7010E948110809134
:1021B000D30180FF1AC08091D7011F928F93809125
:1021C000D6011F928F938091D5011F928F9385E244
:1021D00098E09F938F930E9497078DB79EB70896BC
:1021E0000FB6F8949EBF0FBE8DBFDF91CF911F91A8
:1021F0000F91FF90EF90DF90CF90BF90AF909F90A6
:102200008F900895E62EF12CE4919E2ECE2ED12CA7
:1022100026E0D29FC00111242FEF30E0B9010E94C7
:10222000BD288D2F90E0880F991FF5E5F69FA0013E
:10223000F79F500D1124841B950BB82EBB0CB80EC4
:10224000A9014E195F094C9DC0014D9D900D5C9DEB
:10225000900D1124F92FCB9DA0011124452F552756
:10226000D901A41BB50BAC9DA001AD9D500DBC9D2B
:10227000500D1124D901AB19B1095D01AE9CD001FB
:10228000AF9CB00DBE9CB00D1124AB2FBB272A1BF9
:102290003B0B2C9DD0012D9DB00D3C9DB00D11240C
:1022A0002B2F62307105A1F050F46115710509F40E
:1022B0005BCF6130710581F0292FF52F55CF643048
:1022C000710569F080F06630710509F44DCFF4CFE7
:1022D0002E2FE92FFB2F48CF2E2FE52F45CF292F6B
:1022E000FE2FEB2F41CFE92FF92D252F3DCF8091E8
:1022F000D30180FF7ACF1F921F931F92CF931F921B
:10230000DF938EEF97E09F938F930E949707ADB76F
:10231000BEB718960FB6F894BEBF0FBEADBF65CF5F
:10232000E4EDF1E0438121E1421B08F440E021E0CB
:10233000628181810C949310E4EDF1E0438121E10D
:10234000420F08F44FEF21E0628181810C949310D9
:10235000E4EDF1E0628121E1621B08F460E021E03C
:10236000438181810C949310E4EDF1E0628121E1DD
:10237000620F08F46FEF21E0438181810C94931088
:10238000E4EDF1E0818121E04381628188500C9489
:102390009310E4EDF1E0818121E043816281885F67
:1023A0000C9493108091D801882319F08150809368
:1023B000D8016091D4017091D5018091D60190919E
:1023C000D7010C9481108091D801833018F48F5F6D
:1023D0008093D8016091D4017091D5018091D6018C
:1023E0009091D7010C9481108091D40180FF36C068
:1023F000817082608093D401662331F16091D401B1
:102400007091D5018091D6019091D7010E948110E1
:102410008091D30180FF0FC08091D40186951F92D7
:102420008F9382EE96E09F938F930E9497070F9071
:102430000F900F900F9020E04091D7016091D6014E
:102440008091D5010C9493108091D30180FFF3CF3C
:102450001F9281E08F9384EC96E0E5CF0895809100
:10246000D4018695815009F481E061E00C94F41167
:1024700061E081E00C94F411E4EDF1E083E080830D
:1024800011828FEF828383831482608171818281C4
:1024900093810C9481101092C10180910A01E4E5AE
:1024A000F1E0882359F08091CA0187FF07C08EE1CF
:1024B000DF011D928A95E9F70C94230E86E0F8CF90
:1024C0001F93CF93DF93CDB7DEB7AA970FB6F894DB
:1024D000DEBF0FBECDBF84E092E02091F100DC01B1
:1024E0002D93CD01B2E08C309B07B9F780910502A6
:1024F000833009F471C0B8F4813009F448C08230E7
:1025000009F4B2C08091E80083FF3AC180910402CF
:10251000909105029A3008F033C1E92FF0E0EA5CAF
:10252000F64D0C94D1288A3009F48DC08B3009F413
:1025300070C0893039F780910402813219F7809197
:10254000080290910902009711F00297D9F6809144
:10255000E800877F8093E8008091E80082FF37C021
:102560009091F3008091F200029729F48091F1009C
:102570008B7F813021F48091F1008093DF01809185
:10258000E8008B778093E8000E941A08BBCF809107
:102590000402813A09F0B6CF8091E800877F8093EA
:1025A000E8008091080290910902892B61F460E2B1
:1025B00080EE91E070E00E94CC088091E8008B777B
:1025C0008093E8009FCF60E090E080E0F3CF8091BF
:1025D00002028111C1CF96CF80910402813A09F0A5
:1025E00091CF8091080290910902892B09F08ACF3E
:1025F0008091E800877F8093E8008091E80080FF69
:10260000FCCF80910A018093F1008091E8008E77E1
:10261000B9CF80910402813209F074CF8091080211
:1026200090910902892B09F06DCF8091E800877F96
:102630008093E8000E941A088091060280930A01A4
:102640000E944B125FCF80910402813209F05ACF71
:102650008091E800877F8093E8000E941A088091AB
:1026600007028093DE014ECF80910402813A09F087
:1026700049CF8091E800877F8093E8008091E8004F
:1026800080FFFCCF8091DE01BECF803899F0823888
:1026900009F076C0809108028F70873008F070C012
:1026A0008093E9008091EB0085FB882780F91092E8
:1026B000E90006C0809100029091010291118260B0
:1026C0009091E800977F9093E8008093F10010923A
:1026D000F1008091E8008E77BAC1882309F4A7C180
:1026E000823009F04DC0809106028111ABC180910A
:1026F00008028F702FEF280F263008F041C080931A
:10270000E9002091EB0020FF9DC1933031F48091CE
:10271000EB0080628093EB0095C19091EB0090619B
:102720009093EB0021E030E001C0220F8A95EAF798
:102730002093EA001092EA008091EB008860EACFD3
:1027400081111EC0109106021F778091E3008078EE
:10275000812B8093E3008091E800877F8093E800DD
:102760000E941A088091E80080FFFCCF8091E3006E
:1027700080688093E30082E0111183E0809302027D
:102780008091E80083FF0AC08091E800877F8093F2
:10279000E8008091EB0080628093EB00AA960FB670
:1027A000F894DEBF0FBECDBFDF91CF911F9108958A
:1027B0008058823028F720910602309107022C3D84
:1027C000E3E03E07A1F583E08A838AE289834FB77D
:1027D000F894DE01139620E03EE051E2E32FF0E0B2
:1027E00050935700E49120FF03C0E295EF703F5FE4
:1027F000EF708E2F90E0EA30C0F0C7968D939D93D6
:102800002F5F243159F74FBF8091E800877F809375
:10281000E8006AE270E0CE0101960E94CC08809147
:10282000E8008B778093E800ABCFC096E7CF80912C
:10283000080290910902432F55274330510509F4AE
:102840004AC078F54130510509F47AC08BE790E031
:10285000EAE9FCE04230510509F092CF2091E8000E
:10286000277F2093E80020910A0230910B02821703
:10287000930708F49C0140E02115310509F065C07B
:10288000411163C08091E80082FDC9CF80910202AE
:10289000882329F2853019F28091E80083FFF2CF76
:1028A000BECF4132510509F43CC04232510509F016
:1028B00067CF8430910508F063CFFC01EE0FFF1F56
:1028C000E05CFE4F0190F081E02D845C9E4FDC01C6
:1028D0008C9190E01AC0332721303105D1F02115B9
:1028E000310561F02230310509F04ACFE7E2FDE021
:1028F000E4918E2F90E0E7E2FDE007C0EDE4FDE01B
:10290000E4918E2F90E0EDE4FDE0009709F438CFDC
:10291000A5CFE9E3FDE0E4918E2F90E0E9E3FDE04F
:10292000F4CF8430910508F02BCF880F991FFC015C
:10293000E85BFE4F0190F081E02D89E090E08ECFC2
:1029400082E190E0E5E1FDE089CF809102028823F9
:1029500009F465CF853009F462CF8091E80083FDEA
:102960005ECF8091E80082FD8DCF8091E80080FFEE
:1029700083CF9091F3008091F2002115310519F079
:102980008830910550F041E0089709F040E08091CF
:10299000E8008E778093E8006FCF44914093F10078
:1029A0003196215031090196E8CF803809F0E8CE00
:1029B0008091E800877F8093E800809103028093F4
:1029C000F10087CE8111DCCE10910602123008F0A2
:1029D000D7CE8091E800877F8093E80010930302B0
:1029E0000E941A08112311F084E005C08091E300D1
:1029F00087FDFACF81E08093020242E061EC81E042
:102A00000E94390842E261EC84E00E94390842E207
:102A100061EC82E00E94390842E260EC83E00E94AF
:102A2000390842E261EC85E00E943908A9CE809124
:102A30000602813009F0A4CE81E0933009F080E0F5
:102A4000809301021092E9008091E800877F8093D3
:102A5000E8000E941A0894CECF93C82F1F928F933C
:102A60008FEB96E09F938F930E94970761E070E051
:102A700080E090E004C0660F771F881F991FCA95F9
:102A8000D2F70E94B30E0F900F900F900F90CF913E
:102A90000C944B12CF93DF93EBEFE80FEF3308F07A
:102AA00057C2F0E0E05CF64D0C94D12884EB96E040
:102AB0000E94FE068EEF92E00E94FE0683E090E008
:102AC0000E94DE281F928F938BEF92E09F938F934B
:102AD0000E94970789EF92E00E94FE0682E090E054
:102AE0000E94DE28C82F86EE92E00E94FE061F920A
:102AF000CF9381EE92E09F938F930E9497078FED83
:102B000092E00E94FE0685ED92E00E94FE068C2F68
:102B100081701F928F9382ED92E09F938F930E941A
:102B2000970780ED92E00E94FE0686EC92E00E94FC
:102B3000FE06C1FB882780F91F928F9383EC92E0F9
:102B40009F938F930E94970781EC92E00E94FE066C
:102B500085EB92E00E94FE06C2FB882780F91F9257
:102B60008F9382EB92E09F938F930E94970780EB65
:102B700092E00E94FE0687EA92E00E94FE06C3FBF6
:102B8000CC27C0F91F92CF9384EA92E09F938F9352
:102B90000E94970782EA92E00E94FE060E94AA0A1B
:102BA000EC018EE892E00E94FE06DF93CF9389E865
:102BB00092E09F938F930E94970787E892E00E948C
:102BC000FE068EE692E00E94FE068C2F81701F9218
:102BD0008F938BE692E09F938F930E9497078DB718
:102BE0009EB780960FB6F8949EBF0FBE8DBF89E644
:102BF00092E00E94FE0682E592E00E94FE06C1FB82
:102C0000882780F91F928F938FE492E09F938F9390
:102C10000E9497078DE492E00E94FE068BE392E00B
:102C20000E94FE068D2F81701F928F9388E392E0A1
:102C30009F938F930E94970786E392E00E94FE067F
:102C400084E292E00E94FE06D695D1701F92DF9337
:102C500081E292E09F938F930E9497078FE192E029
:102C60000E94FE068DE092E00E94FE06C2FB8827CD
:102C700080F91F928F938AE092E09F938F930E9436
:102C8000970788E092E00E94FE0686EF91E00E949E
:102C9000FE06C3FB882780F91F928F9383EF91E094
:102CA0009F938F930E94970781EF91E00E94FE0609
:102CB00087EE91E00E94FE06C4FB882780F91F92F0
:102CC0008F9384EE91E09F938F930E94970782EEFB
:102CD00091E00E94FE0680ED91E00E94FE06C5FB99
:102CE000882780F91F928F938DEC91E09F938F93AB
:102CF0000E9497078BEC91E00E94FE068FEA91E01C
:102D00000E94FE06C6FB882780F91F928F938CEAEB
:102D100091E09F938F930E9497078DB79EB78096FF
:102D20000FB6F8949EBF0FBE8DBF8AEA91E00E9455
:102D3000FE0682EA91E00E94FE06C7FBCC27C0F99E
:102D40001F92CF938FE991E09F938F930E949707F3
:102D50008DE991E00E94FE060F900F900F900F906A
:102D600081E01CC083EA96E00E94FE060E941710D4
:102D7000F7CF8EE093E00E94FE06F2CF8091D30160
:102D8000807F8093D30183ED99E00E94FE068FE956
:102D900096E00E94FE0681E080938001DF91CF9152
:102DA000089583E896E00E94FE060E944B129FEF72
:102DB00024E38CE0915020408040E1F700C0000007
:102DC0000E942E099091D301892F8E7F90FF816000
:102DD0008093D30180FF03C087E796E0CCCF8AE6DB
:102DE00096E00E94FE068091D301817F8093D301FB
:102DF000B7CF9091D301892F8D7F91FF826080930F
:102E0000D30181FF08C08DE596E00E94FE06809107
:102E1000D3018160EBCF8FE496E0ADCF9091D301E9
:102E2000892F8B7F92FF84608093D30182FF03C040
:102E300080E496E0EACF80E396E09DCF9091D301C5
:102E4000892F877F93FF88608093D30183FF03C01E
:102E500084E296E0DACF87E196E08DCF80E795E0D7
:102E60000E94FE0688E395E00E94FE0681E295E05E
:102E70000E94FE068BEE94E00E94FE0680EC94E039
:102E80007ACF82EF95E00E94FE060E94D6091F923B
:102E90008F9388ED95E09F938F930E949707809181
:102EA0000A011F928F9381EC95E09F938F930E946C
:102EB00097078091DE011F928F938EEA95E09F9392
:102EC0008F930E9497078091CA0187FB882780F91A
:102ED0001F928F9386E995E09F938F930E949707A7
:102EE0002FB7F89480910C0290910D02A0910E02E0
:102EF000B0910F022FBFBF93AF939F938F938FE734
:102F000095E09F938F930E9497078DB79EB7469643
:102F10000FB6F8949EBF0FBE8DBF22CF0E944B12FA
:102F20009091CA01892F97FB87F980588093CA0135
:102F300087FF03C08DE096E01ECF82E096E01BCFB6
:102F400080E00E942C150CCF8953FBCF8D51F9CF17
:102F500080E096E00E94FE0680E020CFCF93C82F4D
:102F60008823E9F18CEF8C0F813A08F06CC08091D6
:102F70008001882359F18130A1F110928001809164
:102F80000A01882309F44EC08091CA0187FF4AC014
:102F9000EC2FE695E695E695F0E0EE5AFE4F82813D
:102FA00090E04C2F477021E030E002C0220F331F29
:102FB0004A95E2F782239323892BE9F16C2F82E56E
:102FC00091E00E941A0D0E949B0D35C08091C101B5
:102FD0008232A9F68C2F0E944A15882381F2CF9164
:102FE00008958091C1018232A9F3C431B9F038F457
:102FF000CB3049F08EEE99E00E94FE0611C0C93236
:1030000069F0C833B9F783ED99E00E94FE0680EFBE
:1030100099E00E94FE0681E08170DFCF109280016E
:1030200080E0FACFE4E5F1E08191C81739F281E060
:10303000EA35F807C9F76C2F82E591E00E94550D3B
:10304000CF910C949B0D80E28C0F883068F4C77090
:1030500021E030E001C0220FCA95EAF78091C1015A
:10306000822B8093C101ECCFEBE5EC0FE33040F411
:10307000F0E0E55FFE4F808190E0CF910C94C009B5
:10308000C85AC73108F0ABCFEC2FF0E0EE0FFF1FAE
:10309000E25FFE4F80819181CF910C94AA091F932A
:1030A000CF93DF93182FD0E0C0E0893311F4C0E54F
:1030B000D0E0812F0E94AE17209731F4812FDF914D
:1030C000CF911F910C94D20E8FE99FE00197F1F7F9
:1030D00000C000002197F0CF0F931F93CF93DF9391
:1030E000C62FD42F022FFC0182818823A1F0609388
:1030F00012020E943F099093110280931002C77040
:1031000081E001C0880FCA95EAF7DF91CF911F9146
:103110000F910C94C80E80911202681340C0209148
:103120001002309111024FB7F89480910C029091E7
:103130000D02A0910E02B0910F024FBF821B930BA4
:10314000883C910560F510E21D0F6D17B9F080E223
:10315000860F883040F4C77081E001C0880FCA959F
:10316000EAF70E94BD0E183048F481E09D2F977059
:1031700001C0880F9A95EAF70E94C80E802F0E941E
:103180004F18183098F4D77081E001C0880FDA9595
:10319000EAF7DF91CF911F910F910C94BD0EC7708C
:1031A00081E001C0880FCA95EAF7F3CFDF91CF9194
:1031B0001F910F9108953F924F925F926F927F926D
:1031C0008F929F92AF92BF92CF92DF92EF92FF9237
:1031D0000F931F93CF93DF9300D000D00F92CDB702
:1031E000DEB78C01FC0183819481892B31F08081D1
:1031F000918189238F3F09F061C60F900F900F9046
:103200000F900F90DF91CF911F910F91FF90EF9052
:10321000DF90CF90BF90AF909F908F907F906F90F6
:103220005F904F903F9008950E94690CF82E682F90
:1032300089819A810E94760969817A818F2D0E9405
:10324000DD0A7C01F8019281992309F42AC69701CD
:1032500022513F452031310508F0F6C58FEF93E04C
:103260000E94DE28FEEEEF0E56E3852E912C882379
:1032700081F18091BE01877009F4BFCFF80182818E
:10328000882309F4BACF82E00F900F900F900F902F
:103290000F90DF91CF911F910F91FF90EF90DF90F2
:1032A000CF90BF90AF909F908F907F906F905F90E6
:1032B0004F903F900C947A0E811424E09206C9F24C
:1032C000C4010E94DE28811101C0EA943FEF831AF5
:1032D000930AE110F1CF1C821B82442443944AE0FC
:1032E000342E74018FEFE81AF80AC4010E94DE2818
:1032F00089831A82882309F4BCCF9FEF980F9330FB
:1033000000F58A83498292E0890E911CC7010E94D0
:10331000DE288B83882309F4ACCFFE0131967F0130
:10332000F70120812223E9F2213009F049C091817F
:103330008281913041F4F2E0EF0EF11C0E944F18AF
:1033400009C04701EACF923049F422E0E20EF11CB5
:103350000E94AE173FEFE31AF30AE2CF933031F445
:1033600032E0E30EF11C0E94D20EF4CF943021F033
:103370008FEFE81AF80AEECF92E0E90EF11C30E088
:1033800020E0B7016F5F7F4FF70141818053990BB8
:103390008A30910550F021503109E0F28FE99FE029
:1033A0000197F1F700C00000F6CF329EF001339E86
:1033B000F00D11249C012E0F3F1F842F7B01E1CFC4
:1033C000E22FF0E0E657F74F5490822F86958695CE
:1033D000869590E0FC01E658F74F64902770712CB9
:1033E000022E02C0759467940A94E2F7E1E06E221F
:1033F0007724FC01E659F74FA490B12C022E02C0AD
:10340000B594A7940A94E2F7F1E0AF22BB24FC0143
:10341000E65AF74FC490D12C02C0D594C7942A9590
:10342000E2F721E0C222DD246114710419F081EE7B
:103430000E94AE17A114B10419F086EE0E94AE17D7
:10344000852D0E944F18AB2819F086EE0E94D20EEF
:10345000672819F081EE0E94D20ECD2809F47ACFA8
:103460008CE26CCF81E00E94920E0E943B0E01CF55
:1034700081E00E94570EF9CF82E0F5CF85EFE81684
:103480008CE5F80609F46AC008F464C027E245EE4A
:1034900066EEF6EFEF16FCE5FF0609F4FEC499238D
:1034A00009F41DC51092120222E0E2162CE5F20684
:1034B00008F44DC136E1E3163CE5F30638F0970118
:1034C0002A5F3C452930310508F041C10E94AA0A13
:1034D0009093CB018093CA0180E1E8168CE5F80651
:1034E00009F404C108F083C0E8E0EE16ECE5FE063E
:1034F00009F4EEC008F04FC024E0E2162CE5F20615
:1035000009F4DEC090F582E0E8168CE5F80609F4CF
:10351000D1C08091CA01826093E0E9169CE5F9066A
:1035200009F4CBC06091CA01F090CB0184E090E037
:103530000E94F2286F2D81E290E00E94F2280E9402
:103540004B1297CE27E245EE65EEA7C426E241EE88
:1035500060EEA3C427E245EE64EE9FC426E241EE8E
:1035600062EE9BC428E241E0EFCF8091CA01806106
:10357000E6E0EE16ECE5FE0609F49FC08091CA0174
:103580008860F7E0EF16FCE5FF0608F496C080912E
:10359000CA01806292C08091CA018D7F2CE0E21640
:1035A0002CE5F20609F489C060F48AE0E8168CE59F
:1035B000F80609F497C008F48FC08091CA018E7F85
:1035C0007CC08091CA01877FEEE0EE16ECE5FE0636
:1035D00009F473C08091CA018B7FFFE0EF16FCE510
:1035E000FF0608F46AC08091CA018F7E66C02BEF87
:1035F000E2162CE5F20609F467C068F583E1E816E7
:103600008CE5F80609F47AC090F4E1E1EE16ECE5F9
:10361000FE0609F46FC0F2E1EF16FCE5FF0609F0C3
:1036200081CF0E944B128091CA018F7746C025E15D
:10363000E2162CE5F20609F469C008F47DC08AEFB1
:10364000E8168CE5F80609F06DCF8091CB0181601A
:103650008093CB0167CF9FEFE9169CE5F90609F44B
:1036600051C0A0F48091CB018D7FFDEFEF16FCE5FA
:10367000FF0671F38091CB018E7F2EEFE2162CE5D1
:10368000F20630F38091CB018360E2CF31E0E316A4
:103690003DE5F30609F459C008F444C060E092E047
:1036A000E9169DE5F90609F03DCF8EE090E00E9415
:1036B000F22838CF8091CA0181608093CA0132CF4D
:1036C0008091CA018460F9CF8091CB018260C0CF24
:1036D0008091CA018064F1CF0E944B128091CA018F
:1036E0008068EBCF8091CA018C60E7CF8091CA01DE
:1036F0008F7DE3CF8091CA018F7BDFCF8091CA019C
:10370000837FDBCF8091CB018C7FA2CF8091CA01D8
:1037100082FB992790F921E0922790FB82F990FB98
:1037200083F9CBCF8091CB01982F909591708E7FAC
:10373000892B90FB81F98CCF0E944B129091CA018A
:10374000892F97FB87F98058B8CF61E0AECF809181
:10375000C101E6E1EE16ECE5FE0609F0D0C38A7A77
:1037600091E009F490E090937F0169E2811165E3B3
:1037700082E591E00E94550D0E949B0D7ACD8091CB
:10378000D30180FF10C08091D401809581701F9279
:103790008F9389E799E09F938F930E9497070F90EB
:1037A0000F900F900F908091D40180FF2CC08E7FDE
:1037B0008093D4016091D4017091D5018091D6019C
:1037C0009091D7010E9481108091D30180FF0FC09A
:1037D0008091D40181701F928F938AE099E09F932A
:1037E0008F930E9497070F900F900F900F90FFEF0D
:1037F00020E732E0F15020403040E1F700C0000007
:103800000E94E00F36CD81608093D4018091D30176
:1038100080FF0DC01F9281E08F9382E499E09F9317
:103820008F930E9497070F900F900F900F908091A9
:10383000D40161E086950E94F4111BCD4FE252E164
:1038400068E372E10E94E20914CD48E352E16FE2BD
:1038500072E1F8CF40EC51E169EC71E1F3CF49EC52
:1038600051E160EC71E1EECF48EA51E164EB71E1C6
:10387000E9CF44EB51E168EA71E1E4CF40E951E17D
:103880006CE971E1DFCF4CE951E160E971E1DACF38
:1038900042ED51E163EE71E1D5CF43EE51E162EDCE
:1038A00071E1D0CF61E081E0C6CF81E0E8168CE520
:1038B000F806B1F0EEEDEE16ECE5FE0619F1E114B6
:1038C000FCE5FF0611F50E944B122FEF34E38CE06C
:1038D000215030408040E1F700C000000E942E09D6
:1038E0009091D301892F8E7F90FF81608093D301C7
:1038F00080FF05C082EC99E00E94FE06BACC80EB06
:1039000099E0FACF0E941710B4CCF801E080F18062
:103910009923D9F1C7010E94690CD82E682FC701DD
:103920000E947609B7018D2D0E94EA0A7C01882E3B
:10393000F801D280A580A2943FE0A3228091BE012D
:103940008770A1F0CD2CDD2091F08F2D807F803409
:1039500021F080E28E0D883048F082E00E947A0EDD
:103960008091BE018770CC24C3948111C12C3F2C5F
:1039700032942FE03222FBE0F31508F442C0E32D2D
:10398000F0E0E158F64D0C94D128C7010E9451098E
:10399000D82EC8CF2F2D2F70A22E8F2D807F19F0FB
:1039A000A29490EFA922DD20C9F0AA2069F080E25C
:1039B0008E0D883010F081100BC08091C101A82AB3
:1039C000A092C1010E949B0D8E2D0E94AE1719C0BE
:1039D0008091C001A82AA092C001F4CF8E2D0E9430
:1039E000D20EAA2071F0A09480E28E0D883010F0E3
:1039F00081103DC08091C101A822A092C1010E9406
:103A00009B0D232D2850330B2430310510F40E94D8
:103A1000D609CC2009F4F1CB8091BE0180FDEDCB1D
:103A2000F80112828595859585950E94920EC801B0
:103A30000E94DB188091BE018595859585950F9034
:103A40000F900F900F900F90DF91CF911F910F91DA
:103A5000FF90EF90DF90CF90BF90AF909F908F90AE
:103A60007F906F905F904F903F900C94570E809195
:103A7000C001A822A092C001C2CF3F2D3F70932E5B
:103A80008F2D807F803219F0929480EF98228820C9
:103A900071F081E0881661F1DD20B9F1AA2071F1A1
:103AA000F801858180FF90CF8F70858327C0DD204E
:103AB00091F09091C201892D892BA11003C00E9421
:103AC000C80E9FCFE1E0AE12FACF981709F499CF54
:103AD0008093C20196CFA11006C00E944B09892D88
:103AE0000E94BD0E8ECFF1E0AF1609F48ACFF5CF5C
:103AF000DD2031F025E02A1508F483CF892DDFCFB2
:103B000034E03A1508F47DCFEACFAA2041F3F9E377
:103B10008F1209C02FEF37EE83E0215030408040F4
:103B2000E1F700C000008E2D0E94D20E6ACF8F2DCB
:103B300086958695837061F0813009F062CFC70168
:103B40009370D11002C090E080E00E94AA0959CF82
:103B5000C7019370D11002C090E080E00E94C009BC
:103B600050CF8F2D837009F066C0D1104ACF8E2DB3
:103B7000829586958770880F880F6E2D6F70462E00
:103B8000512C712C612C082E04C0440C551C661C51
:103B9000771C0A94D2F740E050E0BA01E4FE0FC06F
:103BA0004FE050E060E070E004C0440F551F661F16
:103BB000771F8A95D2F740955095609570958F2D17
:103BC000869586958370823019F1D8F48090C30170
:103BD0009090C401A090C501B090C601813069F0F9
:103BE0004429552966297729CB01BA016821792111
:103BF0008A219B210E94B30E04CF482859286A28A5
:103C00007B28CB01BA016429752986299729F2CF2F
:103C100044295529662977294090C3015090C40151
:103C20006090C5017090C601CB01BA01642575256D
:103C300086259725DFCF8695DD2011F08F2D8170A9
:103C4000882309F4DECE8E2D829586958770880FA5
:103C5000880F6E2D6F70462E512C712C612C082E02
:103C600004C0440C551C661C771C0A94D2F740E033
:103C700050E0BA01E4FE0FC04FE050E060E070E0B9
:103C800004C0440F551F661F771F8A95D2F74095D1
:103C90005095609570958F2D8695869583708230AE
:103CA00019F1D8F48090130290901402A09015029C
:103CB000B0901602813069F0442955296629772988
:103CC000CB01BA01682179218A219B210E94310E02
:103CD00098CE482859286A287B28CB01BA01642944
:103CE000752986299729F2CF4429552966297729EC
:103CF00040901302509014026090150270901602CA
:103D0000CB01BA016425752586259725DFCF9F2D28
:103D10009F70F92EDD2029F0892F0E94920E8E2DA2
:103D2000CECE8E2D0E94BD0E8F2D0E94570E69CED5
:103D30008E2DE2EF8E1609F453C0E81578F0F0EFFF
:103D40008F1629F121EF821609F442C0DD2009F413
:103D50006BC0A11039CE8F2D8F713FC033EF83160A
:103D600009F443C094EF8912F1CFDD2009F451C06A
:103D70002F2D2F71F22E822F0E94920E38E0F39E8B
:103D8000C001112483608093BE018F2D26C0DD20E9
:103D9000D1F0E4E0EA1508F434CE2F2D2F7161E064
:103DA00070E080E090E004C0660F771F881F991FC5
:103DB0002A95D2F740901302509014026090150299
:103DC000709016029FCFF5E0FA1508F41ACEE5CFF1
:103DD0008F2D8F71DD2009F4A8CF0E94920E11CE95
:103DE0008F2D8F71DD20C9F3A0CF60E070E0CB0193
:103DF000DD2009F46BCF2F2D2F7161E070E080E0A2
:103E000090E004C0660F771F881F991F2A95D2F78C
:103E10005DCF81E00E947A0E81E08A1508F0F1CD35
:103E200082E00E947A0EEDCDAA2059F0893309F084
:103E30007ACE9FEFE7EEF3E09150E040F040E1F7FB
:103E400070CE8F2D8F7171CFF0E1EF16FFE5FF0679
:103E500009F408CB21E1E2162FE5F20609F40CCBB8
:103E600083EFE8168CE5F80609F470CB08F006CB72
:103E7000F8EDEF16FCE5FF0609F464CB29EDE21638
:103E80002CE5F20609F46ECB37EDE3163CE5F306BC
:103E900009F005CB26E241EE61EEC8010E946C18E4
:103EA000E8C930E1E3163FE5F30609F4E1CA81E130
:103EB000E8168FE5F806A1F682E0DBCA85E0DE01B0
:103EC000119601900D928A95E1F7F801228189817E
:103ED0009A812111A9C90E945109F82EADC9F6E1B4
:103EE000EF16FCE5FF0609F010CD80917F0169E235
:103EF000811165E382E591E00E941A0D3DCC82724A
:103F0000F701E25CFC45E431F10508F0CECCE55761
:103F1000F64D0C94D1281F93CF93DF9380918601A7
:103F2000807FA9F480918301882389F08091B80172
:103F3000D09187016091810170918201A0918401EB
:103F4000B0918501C62FC72316E0D81304C0DF91B6
:103F5000CF911F91089590E0109711F0CF3F19F481
:103F600001968770F2CF189F9001199F300D112490
:103F7000F901E857FE4F41814713F2CF40814613C4
:103F8000EFCF42814111ECCF438154814A1B5B0B3F
:103F9000483C510528F7809186018F70806180939D
:103FA0008601F901E357FE4F80818F708061808325
:103FB00081E891E00E94DB18DF91CF911F910C9472
:103FC000A009AF92BF92CF92DF92EF92FF920F9330
:103FD0001F93CF93DF93CDB7DEB761970FB6F894F9
:103FE000DEBF0FBECDBF8C0185E0F801DE011D965E
:103FF00001900D928A95E1F7F80180819181E2802C
:1040000021E8A22E21E0B22E6091840170918501F9
:104010006115710509F43EC1309181014091820121
:10402000232F24232F3F09F435C1C380D480F0907F
:104030008301F601E61BF70BFF2009F4FBC020917A
:104040008601522F507FE83CF10508F0BBC05111AA
:1040500078C0FE2C491321C038131FC0E1101DC0C9
:104060002F70206120938601C5010E94DB1880918A
:104070008601F80185838F2D61960FB6F894DEBF17
:104080000FBECDBFDF91CF911F910F91FF90EF90A9
:10409000DF90CF90BF90AF900895CD2829F0282FC2
:1040A00029232F3F09F014C120E0F22FF170DF2EF9
:1040B00020FF3DC02091B8014091870156E02413B4
:1040C00015C08D879E878D859E850E94AB0C292FFC
:1040D00022952F702230F8F0243020F59F70F9F0EF
:1040E000F8019581907FD9F4D12C1FC030E0529F08
:1040F000F001539FF00D1124E857FE4F6181961394
:1041000006C06081861303C06281E61210C02F5F73
:104110003F4F2770D4CF9F7011F0882329F3805E22
:10412000883010F3C8010E94DB18FD2CA4CFEE20CC
:1041300009F4A1CF80918601816080938601F12CE2
:104140009ACF491312C0381310C0E1100EC0F80105
:104150002583C8010E94DB1886E0F801A1E8B1E0E0
:1041600001900D928A95E1F786CF8D879E878D8588
:104170009E850E94B50C882309F1EE20F9F080910C
:104180008601803270F02091810130918201388760
:104190002F831986DB86CA868C87CE0107960E94FC
:1041A000DB1886E0F801A1E8B1E001900D928A9554
:1041B000E1F70E948B1FFF24F3945DCFC8010E949A
:1041C000DB18F9CF51110AC081E891E00E94DB1899
:1041D00086E0F50111928A95E9F7B1CF49130FC036
:1041E00038130DC0E1100BC0F8012583C8010E94EF
:1041F000DB1886E0F50111928A95E9F73CCF8D87AF
:104200009E878D859E850E94B50C8823B9F2EE208D
:10421000A9F280918601803220F2209181013091B3
:1042200082013A8329831B82DD82CC828E83CE0178
:104230000196B5CFE83CF105E0F6FE2CEE2009F43E
:10424000BDCF491316C0381314C08091860180FD7C
:1042500083CF982F907F09F47FCFF8018583903F1B
:1042600009F477CF982F907F905F8F70892B85838B
:1042700070CF8D879E878D859E850E94B50C81119C
:1042800090CF80918601816080938601C8010E9451
:10429000DB18F1CEEE2009F491CF8D879E878D85B6
:1042A0009E850E94B50CF82E882309F487CF86E0FE
:1042B000F801A1E8B1E001900D928A95E1F78091B3
:1042C0008101909182010E94AB0C0E948B1FD3CE82
:1042D00021E02E25EACE1F93CF93DF93CDB7DEB733
:1042E00067970FB6F894DEBF0FBECDBF342F4B8B50
:1042F000252F5C8B6D8B7E8B8F8B8E899F896111B7
:104300001092C0011A8A198A3D872E876F87998B70
:10431000888B86E0FE013D96DE01179601900D9296
:104320008A95E1F7CE0107960E94E11F882389F064
:1043300016E08091B80190918701891349C0679672
:104340000FB6F894DEBF0FBECDBFDF91CF911F91A6
:10435000089586E0FE013796DE01119601900D92D8
:104360008A95E1F78A859B85892B11F38F81988542
:1043700089238F3FE9F22091870130E0C90101963E
:10438000877099274091B8014817190671F40E9467
:104390004B12109287011092B80186E0E1E8F1E03B
:1043A000DF011D928A95E9F7C3CF96E0929FD00175
:1043B000939FB00D1124A857BE4FFE013196019076
:1043C0000D929A95E1F7809387010E94A009B0CFE2
:1043D000819FC001112488579E4F0E94E11F8823AE
:1043E00009F4ADCF8091B80190E0019687709927CC
:1043F0008093B8019ECF1F920F920FB60F92112497
:104400002F933F934F935F936F937F938F939F93DC
:10441000AF93BF93CF93DF93EF93FF93D091E900D6
:10442000DF708091EC00C82FC17080FDC0E8109251
:10443000E9008091F000877F8093F00078940E94DB
:1044400060121092E9008091F00088608093F00083
:10445000CD2BCF70C093E900FF91EF91DF91CF9109
:10446000BF91AF919F918F917F916F915F914F918C
:104470003F912F910F900FBE0F901F9018951F9294
:104480000F920FB60F9211242F933F934F935F9388
:104490006F937F938F939F93AF93BF93EF93FF930C
:1044A0008091E10082FF15C08091E20082FF11C07F
:1044B0008091E1008B7F8093E1002091DC012F5FF0
:1044C000822F62E30E94B128992309F4BEC0209391
:1044D000DC018091DA0080FF28C08091D80080FF45
:1044E00024C08091DA008E7F8093DA008091D90019
:1044F00080FFE1C080E189BD82E189BD09B400FE91
:10450000FDCF81E08093020286E89CE00E94FE06D7
:104510008091DD01811109C00E94A0070E946B08F3
:104520008091E20084608093E2008091E10080FF4E
:104530001BC08091E20080FF17C08091E2008E7F57
:104540008093E2008091E20080618093E20080919C
:10455000D80080628093D80019BC85E08093020265
:104560008EE89CE00E94FE068091E10084FF2DC051
:104570008091E20084FF29C080E189BD82E189BD8C
:1045800089B5982F917080FFFBCF8091D8008F7DE7
:104590008093D8008091E1008F7E8093E10080912C
:1045A000E2008F7E8093E2008091E2008160809340
:1045B000E20080910302882309F487C084E080939D
:1045C000020282E99CE00E94FE068091E10083FFE6
:1045D0002BC08091E20083FF27C08091E100877F9C
:1045E0008093E10082E080930202109203028091A6
:1045F000E1008E7F8093E1008091E2008E7F8093C6
:10460000E2008091E20080618093E20042E060E09D
:1046100080E00E9439088091F00088608093F0006B
:1046200086E99CE00E94FE06FF91EF91BF91AF9159
:104630009F918F917F916F915F914F913F912F91BA
:104640000F900FBE0F901F9018951092DC01809173
:10465000DB01882309F43DCF809102028430C1F44C
:104660009091E9009F702091EC00822F817020FDD5
:1046700080E8892B95E09093E9009091EB0090FF02
:1046800004C09091EE0097FD08C08F708093E90000
:104690001092DB011ECF1092F1009091E80095FD81
:1046A000FACF9091E80090FFF0CF9091E8009E77CC
:1046B0009093E800EACF19BC109202028AE89CE0CD
:1046C0000E94FE061092DD0130CF8091E30087FD4D
:1046D00093E09093020275CFCDB7DEB7AA970FB6DD
:1046E000F894DEBF0FBECDBF84B7877F84BF0FB6FF
:1046F000F894A89580916000886180936000109282
:1047000060000FBE80E890E00FB6F89480936100DF
:10471000909361000FBE85B7806885BF85B78068BC
:1047200085BF84E09FE090935101809350010E94E7
:10473000A0070E946B088091E20084608093E200F1
:104740007894809102028823A1F01091E9001F70F3
:104750009091EC00892F817090FD80E8182B1092C9
:10476000E9008091E80083FD0E9460121F701093A1
:10477000E90082E084BD93E095BD9AEF97BD8093F8
:104780006E0054985C9A3E98469A1092C801109216
:10479000D9011092C9011092DA010E94F6092FEF97
:1047A00086E791E0215080409040E1F700C0000092
:1047B0000E94F6098091D90180FF17C06FEF82E255
:1047C00090E00E94F2286FEF83E290E00E94F228CE
:1047D0006FEF84E290E00E94F2286FEF7FEF90E0AD
:1047E00080E00E9410290E942E0990E080E00E9443
:1047F000EC288B3E9E4F11F00E94171082E290E051
:104800000E94DE28813209F03FC483E290E00E94DA
:10481000DE28843009F038C484E290E00E94DE286B
:10482000883209F031C490E080E00E94EC288B3E91
:104830009E4F11F00E94171082E090E00E94DE2847
:104840008093D3010E94AA0A9093CB018093CA015E
:1048500083E090E00E94DE28682F70E090E080E026
:104860000E94B30E8091CC018111DEC08091D301F2
:1048700080FF14C08CE89BE09F938F930E94970762
:104880008091D3010F900F9080FF08C086E79BE0D6
:104890009F938F930E9497070F900F9090E080E076
:1048A0000E94EC288B3E9E4F81F08091D30180FFC7
:1048B00008C08EE49BE09F938F930E9497070F9010
:1048C0000F900E9417100E943C1288E090E00E9416
:1048D000E6286093D4017093D5018093D60190931C
:1048E000D7016E7FD1F48091D30180FF08C085E0AD
:1048F0009BE09F938F930E9497070F900F900E94C9
:104900003C1288E090E00E94E6286093D401709306
:10491000D5018093D6019093D7010E94E709809139
:10492000D30180FF76C08CEE9AE09F938F930E9414
:1049300097078091D3010F900F9080FF6AC08091FC
:10494000D40181701F928F938FEC9AE09F938F9385
:104950000E9497078091D3010F900F900F900F90B6
:1049600080FF57C08091D40186951F928F9384EB6E
:104970009AE09F938F930E9497078091D3010F90A5
:104980000F900F900F9080FF44C08091D5011F922F
:104990008F938AE99AE09F938F930E949707809163
:1049A000D3010F900F900F900F9080FF32C0809135
:1049B000D6011F928F9380E89AE09F938F930E9475
:1049C00097078091D3010F900F900F900F9080FF69
:1049D00020C08091D7011F928F9386E69AE09F9323
:1049E0008F930E9497078091D3010F900F900F90A3
:1049F0000F9080FF0EC08091D8011F928F938AE4A0
:104A00009AE09F938F930E9497070F900F900F90BB
:104A10000F908091D40180FF04C060E086950E94D1
:104A2000F41181E08093CC0180E091E09093CE017D
:104A30008093CD0185E79CE00E94FE0678E1672E19
:104A4000712CEDEAEE2EEBE0FE2E80910202853015
:104A500079F481E79CE00E94FE0610E102E180917A
:104A60000202853009F448C00E944B120E94D60908
:104A70000E94F609882359F08FB7F89440910C02F0
:104A800050910D0260910E0270910F028FBF49ED9F
:104A9000842E41E0942E51EDA52E51E0B52E10E06C
:104AA00000E065EAC62E6BE0D62E33243394202E28
:104AB000F40151904F01F50141905F01451439F027
:104AC0008091D30181FD65C0452440FC9CC001302C
:104AD000110509F05BC08FEF8EA38FA318A60E946B
:104AE0003F098160782F9AA789A74EA15FA168A589
:104AF0008AA50E946B219FC080910202843011F12F
:104B00001092CF0180E40FB6F894A89560926000EF
:104B10000FBE8093600083B7817F846083BF83B7BB
:104B2000816083BF7894889583B78E7F83BF0FB6EB
:104B3000F894A8958091600088618093600010923D
:104B400060000FBE80910102882309F488CF0E9483
:104B5000F6098091DA019091D901892B09F47FCF70
:104B600019BD09BD09B400FEFDCF8091D8008F7D2D
:104B70008093D8008091E00082608093E000809173
:104B8000E00081FDFCCF0E944B1269CF01E010E0F4
:104B90008ECF82EB9BE00E94FE061F921F92FF9237
:104BA000EF920E9497078AEA9BE00E94FE0680919E
:104BB000D9010E94920A1F928F93DF92CF920E9496
:104BC000970783EA9BE00E94FE061F923F92FF92A6
:104BD000EF920E9497078AEA9BE00E94FE0680916E
:104BE000DA010E94920A1F928F93DF92CF920E9465
:104BF000970783EA9BE00E94FE060FB6F894DEBF9B
:104C00000FBECDBF61CF19A22AA2852D81708BA3C3
:104C10000E943F098160782F9DA38CA349A15AA1CE
:104C20006BA18DA10E946B21F801EF52FE4F808194
:104C300091E0892780830E94D6099091D00189173D
:104C400039F10E94D609182F8093D0018091D301A9
:104C500082FF1EC080FF1CC088EC9BE00E94FE0605
:104C60008091D30180FF14C01F921F9383EC9BE0BF
:104C70009F938F930E9497078091D3010F900F907D
:104C80000F900F9080FF04C081EC9BE00E94FE0615
:104C900080910202843009F0D8CE83E08093E9004D
:104CA0008091E80082FFD1CE8091E80090E085FFFE
:104CB00005C00E94BF07882399F091E08091E80029
:104CC0008B778093E800992309F4BFCEE981E15006
:104CD000E33108F07BC0F0E0E156F64D0C94D128AA
:104CE00000E210E0FE0131966F018091E80085FD41
:104CF0000AC08091E8008B778093E8000E94BF078C
:104D0000882399F3DACF8091F100F60181936F0146
:104D10000150110951F7D1CF1A8289E08B831AC053
:104D20008A81823009F4C9C18330D9F1813009F018
:104D30004DC02FB7F89460910C0270910D028091D4
:104D40000E0290910F022FBF0E94D7286B837C83A5
:104D50008D839E8380910202843009F076CE10917B
:104D6000E9001F709091EC00892F817090FD80E820
:104D7000182B82E08093E9008091E80080FF0DC04D
:104D800050E040E060E270E0CE0101960E94F00742
:104D90008091E8008E778093E8001F701093E900FF
:104DA00054CE8091D9018B838091DA018C83D2CF4C
:104DB0008A81823059F46B817C818D819E810E9431
:104DC000D72885E290E00E94F228C4CF8FEF898334
:104DD000C1CF4C816B818A810E94B80A98278927AC
:104DE00098279E838D83B6CFCD80DE80DC24CD24B2
:104DF000DC240A81F4E00F9F800111248B8190E074
:104E0000880F991F080F191F8C8190E0880F991F38
:104E1000080F191F6D2DC80186960E94F2286C2D6F
:104E2000C8018796D0CF0E94D90C94CF8A8181384F
:104E3000C9F060F4803809F08DCF20E04B8160919B
:104E4000D6018091D5010E94931084CF823809F455
:104E50004AC0833809F07ECF20E04091D7016C81B1
:104E60008B81F1CF60E08B810E94F4112B819091B6
:104E7000D3018091D40121111DC08E7F8093D40174
:104E800090FF0CC01F921F928BED9BE09F938F931E
:104E90000E9497070F900F900F900F902FEF80E7D1
:104EA00092E0215080409040E1F700C000000E9455
:104EB000E00F50CF81608093D40190FF0DC01F920E
:104EC00081E08F9385E19CE09F938F930E949707E9
:104ED0000F900F900F900F908091D40160E0869515
:104EE0000E94F41137CF8B818093D8019091D30128
:104EF00090FF30CF1F928F938EE49CE09F938F930F
:104F00000E9497070F900F900F900F9023CF8A81E8
:104F1000813891F030F4803809F01CCF8091D701AE
:104F2000FDCE823889F0833809F014CF8091D50105
:104F30008B838091D6013ACF8091D40180FF02C04B
:104F40008695ECCE80E0EACE8091D801E7CE6091E4
:104F5000D4017091D5018091D6019091D7010E9422
:104F60008110F8CE80E18A83F5CE83E08A838AECD3
:104F7000D5CEAA80BB80BA24AB24BA248E010F5FA1
:104F80001F4FCC80C00ED12ED11CC501C6960C156A
:104F90001D0509F4DFCEEAECAE16E3E0BE0650F4E0
:104FA0000E94DE28F8018483FFEFAF1ABF0A0F5F6B
:104FB0001F4FEBCFF8011482F7CF0A811B81102716
:104FC00001271027CE0101965C01CC80C00ED12EA6
:104FD000D11CC801C6960C151D0509F4BBCE0A3CB0
:104FE000E3E01E0720F4F50164810E94F228FFEF40
:104FF000AF1ABF0A0F5F1F4FECCF0E940A0DAACE57
:1050000084E0B1CFAA80BB80BA24AB24BA248E013D
:105010000F5F1F4FCC80C00ED12ED11CC5018696CC
:10502000C016D10609F496CE20E1A216B10450F4C0
:105030000E94DE28F8018483FFEFAF1ABF0A0F5FDA
:105040001F4FECCFF8011482F7CF0A811B81102784
:1050500001271027CE0101965C01CC80C00ED12E15
:10506000D11CC8018696C016D10609F473CE003152
:10507000110520F4F50164810E94F228FFEFAF1AB8
:10508000BF0A0F5F1F4FEDCF60E085E290E00E9406
:10509000F2280E94D90C0E940A0D61E282E290E09F
:1050A0000E94F22864E083E290E00E94F22868E225
:1050B00084E290E00E94F228B6CB85E290E00E9464
:1050C000DE281B821C821D828E8344CE78941F9220
:1050D0001FB61F9211248F939F93AF93BF9380911C
:1050E0000C0290910D02A0910E02B0910F02019658
:1050F000A11DB11D80930C0290930D02A0930E028E
:10510000B0930F02BF91AF919F918F911F901FBEDF
:105110001F9018951F921FB61F9211248F939F9373
:10512000AF93BF938091CF01811113C080910C0286
:1051300090910D02A0910E02B0910F024196A11D17
:10514000B11D80930C0290930D02A0930E02B093B8
:105150000F02BF91AF919F918F911F901FBE1F9023
:105160001895991B79E004C0991F961708F0961BB3
:10517000881F7A95C9F780950895AA1BBB1B51E13A
:1051800007C0AA1FBB1FA617B70710F0A61BB70BB7
:10519000881F991F5A95A9F780959095BC01CD015C
:1051A0000895EE0FFF1F0590F491E02D09946927F3
:1051B000962769277827872778270895F999FECFBA
:1051C00092BD81BDF89A992780B50895A6E1B0E017
:1051D00044E050E00C941829A8E1B0E042E050E02F
:1051E0000C941829262FF999FECF92BD81BDF89A0B
:1051F000019700B4021639F01FBA20BD0FB6F8941B
:10520000FA9AF99A0FBE08950396272F0E94F32861
:105210000E94F228252F0E94F328242F0C94F328B3
:105220000196272F0E94F3280C94F228DC01CB0171
:10523000FC01F999FECF06C0F2BDE1BDF89A3196A6
:1052400000B40D9241505040B8F70895F894FFCF44
:10525000C40CC40CCD0CCD0CCF0CCD0CCD0CCD0C96
:10526000C40CC40CD40CCD0CCD0CD40C45136D1354
:10527000C0136D13C013A013D813C013D514E214B8
:10528000D116BE16E2165615A817A817B916A817F4
:10529000A8170E17A8171E178E17A817A817A81754
:1052A000A8174117A817A8172E17A817F916A81797
:1052B000A817A617A617A617A617A617A617A61704
:1052C000A617A617A017A817D116B216A817A817C1
:1052D000A817A817A817A817A817A817A817A817D6
:1052E000A017A817A817B916A817A417A417A417CA
:1052F000A417A417A417A417A417A417A017CA1CAF
:10530000CA1C3D1D3D1D971D011D011D011DB11D27
:10531000871E981E981EBF1B1E1C251C2A1C2F1C96
:10532000341C391C3E1C431C481C4D1C521C391992
:1053300039193919391939193919391939198C267D
:105340009026D826E926F426132716278727A7278D
:10535000E626E626B227B527B927DD27FD27002850
:0453600002282528D2
:105364002B09A00F2A099C0F980F01818283E20068
:10537400E900EA00B500B600B700CD008301CC0017
:105384008A019201940121022302240225022602A9
:1053940027022A02B300B4006F00700040226D227D
:1053A4005D013B01CE00AC00AC0CC50CE50CFE0C61
:00000001FF
